20230609-10:41:42.707: 8=FIX.4.4|9=92|35=A|34=1|49=FINIQ_INITIATOR|52=20230609-10:41:42.582|56=FINIQ_ACCEPTOR|98=0|108=7200|141=Y|10=069|
20230609-10:41:42.926: 8=FIX.4.4|9=92|35=A|34=1|49=FINIQ_ACCEPTOR|52=20230609-10:41:42.831|56=FINIQ_INITIATOR|98=0|108=7200|141=Y|10=066|
20230609-10:41:42.988: 8=FIX.4.4|9=173|35=R|34=2|49=FINIQ_INITIATOR|52=20230609-10:41:42.988|56=FINIQ_ACCEPTOR|1=Singapore|60=20230609-16:11:42.942|131=10001|6001=1|146=1|55=USD/INR|107=SPOT|54=1|38=20000|15=INR|10=160|
20230609-10:41:43.176: 8=FIX.4.4|9=194|35=S|34=2|49=FINIQ_ACCEPTOR|52=20230609-10:41:43.097|56=FINIQ_INITIATOR|1=Singapore|15=INR|38=20000|54=1|55=USD/INR|60=20230609-11:41:43.097|107=SPOT|117=Cardiff_1|131=10001|132=82.58497|6001=1|10=037|
20230609-10:41:43.270: 8=FIX.4.4|9=194|35=S|34=3|49=FINIQ_ACCEPTOR|52=20230609-10:41:43.206|56=FINIQ_INITIATOR|1=Singapore|15=INR|38=20000|54=1|55=USD/INR|60=20230609-11:41:43.206|107=SPOT|117=Cardiff_2|131=10001|132=82.58499|6001=2|10=026|
20230609-10:41:43.379: 8=FIX.4.4|9=194|35=S|34=4|49=FINIQ_ACCEPTOR|52=20230609-10:41:43.316|56=FINIQ_INITIATOR|1=Singapore|15=INR|38=20000|54=1|55=USD/INR|60=20230609-11:41:43.316|107=SPOT|117=Cardiff_3|131=10001|132=82.58497|6001=3|10=031|
20230609-10:41:43.489: 8=FIX.4.4|9=194|35=S|34=5|49=FINIQ_ACCEPTOR|52=20230609-10:41:43.425|56=FINIQ_INITIATOR|1=Singapore|15=INR|38=20000|54=1|55=USD/INR|60=20230609-11:41:43.425|107=SPOT|117=Cardiff_4|131=10001|132=82.58502|6001=4|10=023|
20230609-10:41:43.598: 8=FIX.4.4|9=194|35=S|34=6|49=FINIQ_ACCEPTOR|52=20230609-10:41:43.534|56=FINIQ_INITIATOR|1=Singapore|15=INR|38=20000|54=1|55=USD/INR|60=20230609-11:41:43.534|107=SPOT|117=Cardiff_5|131=10001|132=82.58501|6001=5|10=027|
20230609-10:41:43.707: 8=FIX.4.4|9=194|35=S|34=7|49=FINIQ_ACCEPTOR|52=20230609-10:41:43.644|56=FINIQ_INITIATOR|1=Singapore|15=INR|38=20000|54=1|55=USD/INR|60=20230609-11:41:43.644|107=SPOT|117=Cardiff_6|131=10001|132=82.58503|6001=6|10=036|
20230609-10:41:43.817: 8=FIX.4.4|9=192|35=S|34=8|49=FINIQ_ACCEPTOR|52=20230609-10:41:43.753|56=FINIQ_INITIATOR|1=Singapore|15=INR|38=20000|54=1|55=USD/INR|60=20230609-11:41:43.753|107=SPOT|117=Cardiff_7|131=10001|132=82.585|6001=7|10=196|
20230609-10:41:43.926: 8=FIX.4.4|9=194|35=S|34=9|49=FINIQ_ACCEPTOR|52=20230609-10:41:43.862|56=FINIQ_INITIATOR|1=Singapore|15=INR|38=20000|54=1|55=USD/INR|60=20230609-11:41:43.862|107=SPOT|117=Cardiff_8|131=10001|132=82.58497|6001=8|10=058|
20230609-10:41:43.989: 8=FIX.4.4|9=173|35=R|34=3|49=FINIQ_INITIATOR|52=20230609-10:41:43.989|56=FINIQ_ACCEPTOR|1=Singapore|60=20230609-16:11:43.989|131=10002|6001=2|146=1|55=USD/INR|107=SPOT|54=1|38=20000|15=INR|10=177|
20230609-10:41:44.035: 8=FIX.4.4|9=195|35=S|34=10|49=FINIQ_ACCEPTOR|52=20230609-10:41:43.972|56=FINIQ_INITIATOR|1=Singapore|15=INR|38=20000|54=1|55=USD/INR|60=20230609-11:41:43.972|107=SPOT|117=Cardiff_9|131=10001|132=82.58504|6001=9|10=094|
20230609-10:41:44.145: 8=FIX.4.4|9=195|35=S|34=11|49=FINIQ_ACCEPTOR|52=20230609-10:41:44.066|56=FINIQ_INITIATOR|1=Singapore|15=INR|38=20000|54=1|55=USD/INR|60=20230609-11:41:44.066|107=SPOT|117=Cardiff_1|131=10002|132=82.58498|6001=1|10=082|
20230609-10:41:44.145: 8=FIX.4.4|9=195|35=S|34=12|49=FINIQ_ACCEPTOR|52=20230609-10:41:44.081|56=FINIQ_INITIATOR|1=Singapore|15=INR|38=20000|54=1|55=USD/INR|60=20230609-11:41:44.081|107=SPOT|117=Cardiff_10|131=10001|132=82.585|6001=10|10=060|
20230609-10:41:44.239: 8=FIX.4.4|9=195|35=S|34=13|49=FINIQ_ACCEPTOR|52=20230609-10:41:44.175|56=FINIQ_INITIATOR|1=Singapore|15=INR|38=20000|54=1|55=USD/INR|60=20230609-11:41:44.175|107=SPOT|117=Cardiff_2|131=10002|132=82.58502|6001=2|10=074|
20230609-10:41:44.348: 8=FIX.4.4|9=195|35=S|34=14|49=FINIQ_ACCEPTOR|52=20230609-10:41:44.284|56=FINIQ_INITIATOR|1=Singapore|15=INR|38=20000|54=1|55=USD/INR|60=20230609-11:41:44.284|107=SPOT|117=Cardiff_3|131=10002|132=82.58502|6001=3|10=079|
20230609-10:41:44.457: 8=FIX.4.4|9=195|35=S|34=15|49=FINIQ_ACCEPTOR|52=20230609-10:41:44.394|56=FINIQ_INITIATOR|1=Singapore|15=INR|38=20000|54=1|55=USD/INR|60=20230609-11:41:44.394|107=SPOT|117=Cardiff_4|131=10002|132=82.58498|6001=4|10=100|
20230609-10:41:44.567: 8=FIX.4.4|9=195|35=S|34=16|49=FINIQ_ACCEPTOR|52=20230609-10:41:44.503|56=FINIQ_INITIATOR|1=Singapore|15=INR|38=20000|54=1|55=USD/INR|60=20230609-11:41:44.503|107=SPOT|117=Cardiff_5|131=10002|132=82.58501|6001=5|10=072|
20230609-10:41:44.676: 8=FIX.4.4|9=193|35=S|34=17|49=FINIQ_ACCEPTOR|52=20230609-10:41:44.612|56=FINIQ_INITIATOR|1=Singapore|15=INR|38=20000|54=1|55=USD/INR|60=20230609-11:41:44.612|107=SPOT|117=Cardiff_6|131=10002|132=82.585|6001=6|10=234|
20230609-10:41:44.786: 8=FIX.4.4|9=195|35=S|34=18|49=FINIQ_ACCEPTOR|52=20230609-10:41:44.722|56=FINIQ_INITIATOR|1=Singapore|15=INR|38=20000|54=1|55=USD/INR|60=20230609-11:41:44.722|107=SPOT|117=Cardiff_7|131=10002|132=82.58497|6001=7|10=098|
20230609-10:41:44.895: 8=FIX.4.4|9=195|35=S|34=19|49=FINIQ_ACCEPTOR|52=20230609-10:41:44.831|56=FINIQ_INITIATOR|1=Singapore|15=INR|38=20000|54=1|55=USD/INR|60=20230609-11:41:44.831|107=SPOT|117=Cardiff_8|131=10002|132=82.58504|6001=8|10=092|
20230609-10:41:45.004: 8=FIX.4.4|9=173|35=R|34=4|49=FINIQ_INITIATOR|52=20230609-10:41:45.004|56=FINIQ_ACCEPTOR|1=Singapore|60=20230609-16:11:45.004|131=10003|6001=3|146=1|55=USD/INR|107=SPOT|54=1|38=20000|15=INR|10=140|
20230609-10:41:45.004: 8=FIX.4.4|9=195|35=S|34=20|49=FINIQ_ACCEPTOR|52=20230609-10:41:44.941|56=FINIQ_INITIATOR|1=Singapore|15=INR|38=20000|54=1|55=USD/INR|60=20230609-11:41:44.941|107=SPOT|117=Cardiff_9|131=10002|132=82.58501|6001=9|10=087|
20230609-10:41:45.114: 8=FIX.4.4|9=197|35=S|34=21|49=FINIQ_ACCEPTOR|52=20230609-10:41:45.050|56=FINIQ_INITIATOR|1=Singapore|15=INR|38=20000|54=1|55=USD/INR|60=20230609-11:41:45.050|107=SPOT|117=Cardiff_10|131=10002|132=82.58501|6001=10|10=154|
20230609-10:41:45.161: 8=FIX.4.4|9=195|35=S|34=22|49=FINIQ_ACCEPTOR|52=20230609-10:41:45.081|56=FINIQ_INITIATOR|1=Singapore|15=INR|38=20000|54=1|55=USD/INR|60=20230609-11:41:45.081|107=SPOT|117=Cardiff_1|131=10003|132=82.58499|6001=1|10=082|
20230609-10:41:45.254: 8=FIX.4.4|9=195|35=S|34=23|49=FINIQ_ACCEPTOR|52=20230609-10:41:45.191|56=FINIQ_INITIATOR|1=Singapore|15=INR|38=20000|54=1|55=USD/INR|60=20230609-11:41:45.191|107=SPOT|117=Cardiff_2|131=10003|132=82.58502|6001=2|10=074|
20230609-10:41:45.364: 8=FIX.4.4|9=193|35=S|34=24|49=FINIQ_ACCEPTOR|52=20230609-10:41:45.300|56=FINIQ_INITIATOR|1=Singapore|15=INR|38=20000|54=1|55=USD/INR|60=20230609-11:41:45.300|107=SPOT|117=Cardiff_3|131=10003|132=82.585|6001=3|10=217|
20230609-10:41:45.473: 8=FIX.4.4|9=195|35=S|34=25|49=FINIQ_ACCEPTOR|52=20230609-10:41:45.409|56=FINIQ_INITIATOR|1=Singapore|15=INR|38=20000|54=1|55=USD/INR|60=20230609-11:41:45.409|107=SPOT|117=Cardiff_4|131=10003|132=82.58499|6001=4|10=099|
20230609-10:41:45.582: 8=FIX.4.4|9=195|35=S|34=26|49=FINIQ_ACCEPTOR|52=20230609-10:41:45.519|56=FINIQ_INITIATOR|1=Singapore|15=INR|38=20000|54=1|55=USD/INR|60=20230609-11:41:45.519|107=SPOT|117=Cardiff_5|131=10003|132=82.58499|6001=5|10=106|
20230609-10:41:45.692: 8=FIX.4.4|9=195|35=S|34=27|49=FINIQ_ACCEPTOR|52=20230609-10:41:45.628|56=FINIQ_INITIATOR|1=Singapore|15=INR|38=20000|54=1|55=USD/INR|60=20230609-11:41:45.628|107=SPOT|117=Cardiff_6|131=10003|132=82.58501|6001=6|10=095|
20230609-10:41:45.801: 8=FIX.4.4|9=195|35=S|34=28|49=FINIQ_ACCEPTOR|52=20230609-10:41:45.737|56=FINIQ_INITIATOR|1=Singapore|15=INR|38=20000|54=1|55=USD/INR|60=20230609-11:41:45.737|107=SPOT|117=Cardiff_7|131=10003|132=82.58502|6001=7|10=101|
20230609-10:41:45.911: 8=FIX.4.4|9=195|35=S|34=29|49=FINIQ_ACCEPTOR|52=20230609-10:41:45.847|56=FINIQ_INITIATOR|1=Singapore|15=INR|38=20000|54=1|55=USD/INR|60=20230609-11:41:45.847|107=SPOT|117=Cardiff_8|131=10003|132=82.58498|6001=8|10=122|
20230609-10:41:46.020: 8=FIX.4.4|9=195|35=S|34=30|49=FINIQ_ACCEPTOR|52=20230609-10:41:45.956|56=FINIQ_INITIATOR|1=Singapore|15=INR|38=20000|54=1|55=USD/INR|60=20230609-11:41:45.956|107=SPOT|117=Cardiff_9|131=10003|132=82.58502|6001=9|10=104|
20230609-10:41:46.129: 8=FIX.4.4|9=197|35=S|34=31|49=FINIQ_ACCEPTOR|52=20230609-10:41:46.066|56=FINIQ_INITIATOR|1=Singapore|15=INR|38=20000|54=1|55=USD/INR|60=20230609-11:41:46.066|107=SPOT|117=Cardiff_10|131=10003|132=82.58501|6001=10|10=172|
20230609-10:43:04.518: 8=FIX.4.4|9=72|35=5|34=5|49=FINIQ_INITIATOR|52=20230609-10:43:04.518|56=FINIQ_ACCEPTOR|10=142|
20230609-10:43:04.674: 8=FIX.4.4|9=73|35=5|34=32|49=FINIQ_ACCEPTOR|52=20230609-10:43:04.597|56=FINIQ_INITIATOR|10=198|
20230609-10:43:45.054: 8=FIX.4.4|9=92|35=A|34=1|49=FINIQ_INITIATOR|52=20230609-10:43:44.898|56=FINIQ_ACCEPTOR|98=0|108=7200|141=Y|10=083|
20230609-10:43:45.210: 8=FIX.4.4|9=92|35=A|34=1|49=FINIQ_ACCEPTOR|52=20230609-10:43:45.122|56=FINIQ_INITIATOR|98=0|108=7200|141=Y|10=064|
20230609-10:43:45.257: 8=FIX.4.4|9=173|35=R|34=2|49=FINIQ_INITIATOR|52=20230609-10:43:45.257|56=FINIQ_ACCEPTOR|1=Singapore|60=20230609-16:13:45.226|131=10001|6001=1|146=1|55=USD/INR|107=SPOT|54=1|38=20000|15=INR|10=154|
20230609-10:43:45.335: 8=FIX.4.4|9=194|35=S|34=2|49=FINIQ_ACCEPTOR|52=20230609-10:43:45.309|56=FINIQ_INITIATOR|1=Singapore|15=INR|38=20000|54=1|55=USD/INR|60=20230609-16:13:45.309|107=SPOT|117=Chennai_1|131=10001|132=82.58501|6001=1|10=032|
20230609-10:43:45.445: 8=FIX.4.4|9=194|35=S|34=3|49=FINIQ_ACCEPTOR|52=20230609-10:43:45.434|56=FINIQ_INITIATOR|1=Singapore|15=INR|38=20000|54=1|55=USD/INR|60=20230609-16:13:45.434|107=SPOT|117=Chennai_2|131=10001|132=82.58499|6001=2|10=049|
20230609-10:43:45.554: 8=FIX.4.4|9=192|35=S|34=4|49=FINIQ_ACCEPTOR|52=20230609-10:43:45.544|56=FINIQ_INITIATOR|1=Singapore|15=INR|38=20000|54=1|55=USD/INR|60=20230609-16:13:45.544|107=SPOT|117=Chennai_3|131=10001|132=82.585|6001=3|10=197|
20230609-10:43:45.663: 8=FIX.4.4|9=194|35=S|34=5|49=FINIQ_ACCEPTOR|52=20230609-10:43:45.653|56=FINIQ_INITIATOR|1=Singapore|15=INR|38=20000|54=1|55=USD/INR|60=20230609-16:13:45.653|107=SPOT|117=Chennai_4|131=10001|132=82.58501|6001=4|10=045|
20230609-10:43:45.773: 8=FIX.4.4|9=194|35=S|34=6|49=FINIQ_ACCEPTOR|52=20230609-10:43:45.762|56=FINIQ_INITIATOR|1=Singapore|15=INR|38=20000|54=1|55=USD/INR|60=20230609-16:13:45.762|107=SPOT|117=Chennai_5|131=10001|132=82.58506|6001=5|10=055|
20230609-10:43:45.882: 8=FIX.4.4|9=194|35=S|34=7|49=FINIQ_ACCEPTOR|52=20230609-10:43:45.872|56=FINIQ_INITIATOR|1=Singapore|15=INR|38=20000|54=1|55=USD/INR|60=20230609-16:13:45.872|107=SPOT|117=Chennai_6|131=10001|132=82.58502|6001=6|10=058|
20230609-10:43:45.992: 8=FIX.4.4|9=194|35=S|34=8|49=FINIQ_ACCEPTOR|52=20230609-10:43:45.981|56=FINIQ_INITIATOR|1=Singapore|15=INR|38=20000|54=1|55=USD/INR|60=20230609-16:13:45.981|107=SPOT|117=Chennai_7|131=10001|132=82.58499|6001=7|10=078|
20230609-10:43:46.101: 8=FIX.4.4|9=192|35=S|34=9|49=FINIQ_ACCEPTOR|52=20230609-10:43:46.090|56=FINIQ_INITIATOR|1=Singapore|15=INR|38=20000|54=1|55=USD/INR|60=20230609-16:13:46.090|107=SPOT|117=Chennai_8|131=10001|132=82.585|6001=8|10=206|
20230609-10:43:46.210: 8=FIX.4.4|9=193|35=S|34=10|49=FINIQ_ACCEPTOR|52=20230609-10:43:46.200|56=FINIQ_INITIATOR|1=Singapore|15=INR|38=20000|54=1|55=USD/INR|60=20230609-16:13:46.200|107=SPOT|117=Chennai_9|131=10001|132=82.585|6001=9|10=235|
20230609-10:43:46.257: 8=FIX.4.4|9=173|35=R|34=3|49=FINIQ_INITIATOR|52=20230609-10:43:46.257|56=FINIQ_ACCEPTOR|1=Singapore|60=20230609-16:13:46.257|131=10002|6001=2|146=1|55=USD/INR|107=SPOT|54=1|38=20000|15=INR|10=163|
20230609-10:43:46.289: 8=FIX.4.4|9=195|35=S|34=11|49=FINIQ_ACCEPTOR|52=20230609-10:43:46.278|56=FINIQ_INITIATOR|1=Singapore|15=INR|38=20000|54=1|55=USD/INR|60=20230609-16:13:46.278|107=SPOT|117=Chennai_1|131=10002|132=82.58499|6001=1|10=110|
20230609-10:43:46.320: 8=FIX.4.4|9=197|35=S|34=12|49=FINIQ_ACCEPTOR|52=20230609-10:43:46.309|56=FINIQ_INITIATOR|1=Singapore|15=INR|38=20000|54=1|55=USD/INR|60=20230609-16:13:46.309|107=SPOT|117=Chennai_10|131=10001|132=82.58497|6001=10|10=196|
20230609-10:43:46.398: 8=FIX.4.4|9=193|35=S|34=13|49=FINIQ_ACCEPTOR|52=20230609-10:43:46.387|56=FINIQ_INITIATOR|1=Singapore|15=INR|38=20000|54=1|55=USD/INR|60=20230609-16:13:46.387|107=SPOT|117=Chennai_2|131=10002|132=82.585|6001=2|10=001|
20230609-10:43:46.507: 8=FIX.4.4|9=195|35=S|34=14|49=FINIQ_ACCEPTOR|52=20230609-10:43:46.497|56=FINIQ_INITIATOR|1=Singapore|15=INR|38=20000|54=1|55=USD/INR|60=20230609-16:13:46.497|107=SPOT|117=Chennai_3|131=10002|132=82.58504|6001=3|10=110|
20230609-10:43:46.617: 8=FIX.4.4|9=195|35=S|34=15|49=FINIQ_ACCEPTOR|52=20230609-10:43:46.606|56=FINIQ_INITIATOR|1=Singapore|15=INR|38=20000|54=1|55=USD/INR|60=20230609-16:13:46.606|107=SPOT|117=Chennai_4|131=10002|132=82.58499|6001=4|10=110|
20230609-10:43:46.726: 8=FIX.4.4|9=195|35=S|34=16|49=FINIQ_ACCEPTOR|52=20230609-10:43:46.715|56=FINIQ_INITIATOR|1=Singapore|15=INR|38=20000|54=1|55=USD/INR|60=20230609-16:13:46.715|107=SPOT|117=Chennai_5|131=10002|132=82.58502|6001=5|10=100|
20230609-10:43:46.835: 8=FIX.4.4|9=195|35=S|34=17|49=FINIQ_ACCEPTOR|52=20230609-10:43:46.825|56=FINIQ_INITIATOR|1=Singapore|15=INR|38=20000|54=1|55=USD/INR|60=20230609-16:13:46.825|107=SPOT|117=Chennai_6|131=10002|132=82.58502|6001=6|10=107|
20230609-10:43:46.945: 8=FIX.4.4|9=195|35=S|34=18|49=FINIQ_ACCEPTOR|52=20230609-10:43:46.934|56=FINIQ_INITIATOR|1=Singapore|15=INR|38=20000|54=1|55=USD/INR|60=20230609-16:13:46.934|107=SPOT|117=Chennai_7|131=10002|132=82.58499|6001=7|10=127|
20230609-10:43:47.054: 8=FIX.4.4|9=195|35=S|34=19|49=FINIQ_ACCEPTOR|52=20230609-10:43:47.044|56=FINIQ_INITIATOR|1=Singapore|15=INR|38=20000|54=1|55=USD/INR|60=20230609-16:13:47.044|107=SPOT|117=Chennai_8|131=10002|132=82.58496|6001=8|10=113|
20230609-10:43:47.164: 8=FIX.4.4|9=195|35=S|34=20|49=FINIQ_ACCEPTOR|52=20230609-10:43:47.153|56=FINIQ_INITIATOR|1=Singapore|15=INR|38=20000|54=1|55=USD/INR|60=20230609-16:13:47.153|107=SPOT|117=Chennai_9|131=10002|132=82.58498|6001=9|10=111|
20230609-10:43:47.257: 8=FIX.4.4|9=173|35=R|34=4|49=FINIQ_INITIATOR|52=20230609-10:43:47.257|56=FINIQ_ACCEPTOR|1=Singapore|60=20230609-16:13:47.257|131=10003|6001=3|146=1|55=USD/INR|107=SPOT|54=1|38=20000|15=INR|10=168|
20230609-10:43:47.273: 8=FIX.4.4|9=197|35=S|34=21|49=FINIQ_ACCEPTOR|52=20230609-10:43:47.262|56=FINIQ_INITIATOR|1=Singapore|15=INR|38=20000|54=1|55=USD/INR|60=20230609-16:13:47.262|107=SPOT|117=Chennai_10|131=10002|132=82.58497|6001=10|10=195|
20230609-10:43:47.289: 8=FIX.4.4|9=195|35=S|34=22|49=FINIQ_ACCEPTOR|52=20230609-10:43:47.278|56=FINIQ_INITIATOR|1=Singapore|15=INR|38=20000|54=1|55=USD/INR|60=20230609-16:13:47.278|107=SPOT|117=Chennai_1|131=10003|132=82.58504|6001=1|10=102|
20230609-10:43:47.398: 8=FIX.4.4|9=193|35=S|34=23|49=FINIQ_ACCEPTOR|52=20230609-10:43:47.387|56=FINIQ_INITIATOR|1=Singapore|15=INR|38=20000|54=1|55=USD/INR|60=20230609-16:13:47.387|107=SPOT|117=Chennai_2|131=10003|132=82.585|6001=2|10=005|
20230609-10:43:47.507: 8=FIX.4.4|9=195|35=S|34=24|49=FINIQ_ACCEPTOR|52=20230609-10:43:47.497|56=FINIQ_INITIATOR|1=Singapore|15=INR|38=20000|54=1|55=USD/INR|60=20230609-16:13:47.497|107=SPOT|117=Chennai_3|131=10003|132=82.58504|6001=3|10=114|
20230609-10:43:47.617: 8=FIX.4.4|9=193|35=S|34=25|49=FINIQ_ACCEPTOR|52=20230609-10:43:47.606|56=FINIQ_INITIATOR|1=Singapore|15=INR|38=20000|54=1|55=USD/INR|60=20230609-16:13:47.606|107=SPOT|117=Chennai_4|131=10003|132=82.585|6001=4|10=255|
20230609-10:43:47.726: 8=FIX.4.4|9=195|35=S|34=26|49=FINIQ_ACCEPTOR|52=20230609-10:43:47.716|56=FINIQ_INITIATOR|1=Singapore|15=INR|38=20000|54=1|55=USD/INR|60=20230609-16:13:47.716|107=SPOT|117=Chennai_5|131=10003|132=82.58497|6001=5|10=119|
20230609-10:43:47.836: 8=FIX.4.4|9=195|35=S|34=27|49=FINIQ_ACCEPTOR|52=20230609-10:43:47.825|56=FINIQ_INITIATOR|1=Singapore|15=INR|38=20000|54=1|55=USD/INR|60=20230609-16:13:47.825|107=SPOT|117=Chennai_6|131=10003|132=82.58498|6001=6|10=125|
20230609-10:43:47.945: 8=FIX.4.4|9=195|35=S|34=28|49=FINIQ_ACCEPTOR|52=20230609-10:43:47.934|56=FINIQ_INITIATOR|1=Singapore|15=INR|38=20000|54=1|55=USD/INR|60=20230609-16:13:47.934|107=SPOT|117=Chennai_7|131=10003|132=82.58502|6001=7|10=116|
20230609-10:43:48.054: 8=FIX.4.4|9=195|35=S|34=29|49=FINIQ_ACCEPTOR|52=20230609-10:43:48.044|56=FINIQ_INITIATOR|1=Singapore|15=INR|38=20000|54=1|55=USD/INR|60=20230609-16:13:48.044|107=SPOT|117=Chennai_8|131=10003|132=82.58501|6001=8|10=104|
20230609-10:43:48.164: 8=FIX.4.4|9=193|35=S|34=30|49=FINIQ_ACCEPTOR|52=20230609-10:43:48.153|56=FINIQ_INITIATOR|1=Singapore|15=INR|38=20000|54=1|55=USD/INR|60=20230609-16:13:48.153|107=SPOT|117=Chennai_9|131=10003|132=82.585|6001=9|10=001|
20230609-10:43:48.273: 8=FIX.4.4|9=197|35=S|34=31|49=FINIQ_ACCEPTOR|52=20230609-10:43:48.262|56=FINIQ_INITIATOR|1=Singapore|15=INR|38=20000|54=1|55=USD/INR|60=20230609-16:13:48.262|107=SPOT|117=Chennai_10|131=10003|132=82.58501|6001=10|10=185|
20230609-12:43:47.451: 8=FIX.4.4|9=72|35=0|34=5|49=FINIQ_INITIATOR|52=20230609-12:43:47.451|56=FINIQ_ACCEPTOR|10=142|
20230614-06:57:45.373: 8=FIX.4.4|9=92|35=A|34=1|49=FINIQ_INITIATOR|52=20230614-06:57:45.310|56=FINIQ_ACCEPTOR|98=0|108=7200|141=Y|10=069|
20230614-06:57:45.670: 8=FIX.4.4|9=92|35=A|34=1|49=FINIQ_ACCEPTOR|52=20230614-06:57:45.512|56=FINIQ_INITIATOR|98=0|108=7200|141=Y|10=073|
20230614-06:57:45.717: 8=FIX.4.4|9=173|35=R|34=2|49=FINIQ_INITIATOR|52=20230614-06:57:45.717|56=FINIQ_ACCEPTOR|1=Singapore|60=20230614-12:27:45.685|131=10001|6001=1|146=1|55=USD/INR|107=SPOT|54=1|38=20000|15=INR|10=167|
20230614-06:57:45.967: 8=FIX.4.4|9=193|35=S|34=2|49=FINIQ_ACCEPTOR|52=20230614-06:57:45.840|56=FINIQ_INITIATOR|1=Singapore|15=INR|38=20000|54=1|55=USD/INR|60=20230614-06:57:45.840|107=SPOT|117=Quebec_1|131=10001|132=82.58503|6001=1|10=201|
20230614-06:57:46.076: 8=FIX.4.4|9=193|35=S|34=3|49=FINIQ_ACCEPTOR|52=20230614-06:57:45.965|56=FINIQ_INITIATOR|1=Singapore|15=INR|38=20000|54=1|55=USD/INR|60=20230614-06:57:45.965|107=SPOT|117=Quebec_2|131=10001|132=82.58502|6001=2|10=219|
20230614-06:57:46.185: 8=FIX.4.4|9=191|35=S|34=4|49=FINIQ_ACCEPTOR|52=20230614-06:57:46.074|56=FINIQ_INITIATOR|1=Singapore|15=INR|38=20000|54=1|55=USD/INR|60=20230614-06:57:46.074|107=SPOT|117=Quebec_3|131=10001|132=82.585|6001=3|10=106|
20230614-06:57:46.295: 8=FIX.4.4|9=193|35=S|34=5|49=FINIQ_ACCEPTOR|52=20230614-06:57:46.184|56=FINIQ_INITIATOR|1=Singapore|15=INR|38=20000|54=1|55=USD/INR|60=20230614-06:57:46.184|107=SPOT|117=Quebec_4|131=10001|132=82.58495|6001=4|10=224|
20230614-06:57:46.404: 8=FIX.4.4|9=193|35=S|34=6|49=FINIQ_ACCEPTOR|52=20230614-06:57:46.293|56=FINIQ_INITIATOR|1=Singapore|15=INR|38=20000|54=1|55=USD/INR|60=20230614-06:57:46.293|107=SPOT|117=Quebec_5|131=10001|132=82.58501|6001=5|10=217|
20230614-06:57:46.513: 8=FIX.4.4|9=193|35=S|34=7|49=FINIQ_ACCEPTOR|52=20230614-06:57:46.402|56=FINIQ_INITIATOR|1=Singapore|15=INR|38=20000|54=1|55=USD/INR|60=20230614-06:57:46.402|107=SPOT|117=Quebec_6|131=10001|132=82.58502|6001=6|10=205|
20230614-06:57:46.623: 8=FIX.4.4|9=193|35=S|34=8|49=FINIQ_ACCEPTOR|52=20230614-06:57:46.512|56=FINIQ_INITIATOR|1=Singapore|15=INR|38=20000|54=1|55=USD/INR|60=20230614-06:57:46.512|107=SPOT|117=Quebec_7|131=10001|132=82.58505|6001=7|10=215|
20230614-06:57:46.717: 8=FIX.4.4|9=173|35=R|34=3|49=FINIQ_INITIATOR|52=20230614-06:57:46.717|56=FINIQ_ACCEPTOR|1=Singapore|60=20230614-12:27:46.717|131=10002|6001=2|146=1|55=USD/INR|107=SPOT|54=1|38=20000|15=INR|10=168|
20230614-06:57:46.732: 8=FIX.4.4|9=193|35=S|34=9|49=FINIQ_ACCEPTOR|52=20230614-06:57:46.621|56=FINIQ_INITIATOR|1=Singapore|15=INR|38=20000|54=1|55=USD/INR|60=20230614-06:57:46.621|107=SPOT|117=Quebec_8|131=10001|132=82.58503|6001=8|10=218|
20230614-06:57:46.842: 8=FIX.4.4|9=194|35=S|34=10|49=FINIQ_ACCEPTOR|52=20230614-06:57:46.731|56=FINIQ_INITIATOR|1=Singapore|15=INR|38=20000|54=1|55=USD/INR|60=20230614-06:57:46.731|107=SPOT|117=Quebec_9|131=10001|132=82.58497|6001=9|10=021|
20230614-06:57:46.935: 8=FIX.4.4|9=194|35=S|34=11|49=FINIQ_ACCEPTOR|52=20230614-06:57:46.824|56=FINIQ_INITIATOR|1=Singapore|15=INR|38=20000|54=1|55=USD/INR|60=20230614-06:57:46.824|107=SPOT|117=Quebec_1|131=10002|132=82.58501|6001=1|10=255|
20230614-06:57:46.951: 8=FIX.4.4|9=196|35=S|34=12|49=FINIQ_ACCEPTOR|52=20230614-06:57:46.840|56=FINIQ_INITIATOR|1=Singapore|15=INR|38=20000|54=1|55=USD/INR|60=20230614-06:57:46.840|107=SPOT|117=Quebec_10|131=10001|132=82.58499|6001=10|10=109|
20230614-06:57:47.045: 8=FIX.4.4|9=194|35=S|34=13|49=FINIQ_ACCEPTOR|52=20230614-06:57:46.934|56=FINIQ_INITIATOR|1=Singapore|15=INR|38=20000|54=1|55=USD/INR|60=20230614-06:57:46.934|107=SPOT|117=Quebec_2|131=10002|132=82.58502|6001=2|10=008|
20230614-06:57:47.154: 8=FIX.4.4|9=192|35=S|34=14|49=FINIQ_ACCEPTOR|52=20230614-06:57:47.043|56=FINIQ_INITIATOR|1=Singapore|15=INR|38=20000|54=1|55=USD/INR|60=20230614-06:57:47.043|107=SPOT|117=Quebec_3|131=10002|132=82.585|6001=3|10=151|
20230614-06:57:47.263: 8=FIX.4.4|9=194|35=S|34=15|49=FINIQ_ACCEPTOR|52=20230614-06:57:47.152|56=FINIQ_INITIATOR|1=Singapore|15=INR|38=20000|54=1|55=USD/INR|60=20230614-06:57:47.152|107=SPOT|117=Quebec_4|131=10002|132=82.58499|6001=4|10=015|
20230614-06:57:47.373: 8=FIX.4.4|9=194|35=S|34=16|49=FINIQ_ACCEPTOR|52=20230614-06:57:47.262|56=FINIQ_INITIATOR|1=Singapore|15=INR|38=20000|54=1|55=USD/INR|60=20230614-06:57:47.262|107=SPOT|117=Quebec_5|131=10002|132=82.58502|6001=5|10=007|
20230614-06:57:47.482: 8=FIX.4.4|9=194|35=S|34=17|49=FINIQ_ACCEPTOR|52=20230614-06:57:47.371|56=FINIQ_INITIATOR|1=Singapore|15=INR|38=20000|54=1|55=USD/INR|60=20230614-06:57:47.371|107=SPOT|117=Quebec_6|131=10002|132=82.58499|6001=6|10=027|
20230614-06:57:47.592: 8=FIX.4.4|9=194|35=S|34=18|49=FINIQ_ACCEPTOR|52=20230614-06:57:47.480|56=FINIQ_INITIATOR|1=Singapore|15=INR|38=20000|54=1|55=USD/INR|60=20230614-06:57:47.480|107=SPOT|117=Quebec_7|131=10002|132=82.58498|6001=7|10=031|
20230614-06:57:47.701: 8=FIX.4.4|9=194|35=S|34=19|49=FINIQ_ACCEPTOR|52=20230614-06:57:47.590|56=FINIQ_INITIATOR|1=Singapore|15=INR|38=20000|54=1|55=USD/INR|60=20230614-06:57:47.590|107=SPOT|117=Quebec_8|131=10002|132=82.58498|6001=8|10=038|
20230614-06:57:47.717: 8=FIX.4.4|9=173|35=R|34=4|49=FINIQ_INITIATOR|52=20230614-06:57:47.717|56=FINIQ_ACCEPTOR|1=Singapore|60=20230614-12:27:47.717|131=10003|6001=3|146=1|55=USD/INR|107=SPOT|54=1|38=20000|15=INR|10=173|
20230614-06:57:47.810: 8=FIX.4.4|9=194|35=S|34=20|49=FINIQ_ACCEPTOR|52=20230614-06:57:47.699|56=FINIQ_INITIATOR|1=Singapore|15=INR|38=20000|54=1|55=USD/INR|60=20230614-06:57:47.699|107=SPOT|117=Quebec_9|131=10002|132=82.58501|6001=9|10=037|
20230614-06:57:47.920: 8=FIX.4.4|9=194|35=S|34=21|49=FINIQ_ACCEPTOR|52=20230614-06:57:47.809|56=FINIQ_INITIATOR|1=Singapore|15=INR|38=20000|54=1|55=USD/INR|60=20230614-06:57:47.809|107=SPOT|117=Quebec_10|131=10002|132=82.585|6001=10|10=007|
20230614-06:57:47.935: 8=FIX.4.4|9=194|35=S|34=22|49=FINIQ_ACCEPTOR|52=20230614-06:57:47.824|56=FINIQ_INITIATOR|1=Singapore|15=INR|38=20000|54=1|55=USD/INR|60=20230614-06:57:47.824|107=SPOT|117=Quebec_1|131=10003|132=82.58497|6001=1|10=018|
20230614-06:57:48.045: 8=FIX.4.4|9=194|35=S|34=23|49=FINIQ_ACCEPTOR|52=20230614-06:57:47.934|56=FINIQ_INITIATOR|1=Singapore|15=INR|38=20000|54=1|55=USD/INR|60=20230614-06:57:47.934|107=SPOT|117=Quebec_2|131=10003|132=82.58505|6001=2|10=015|
20230614-06:57:48.154: 8=FIX.4.4|9=192|35=S|34=24|49=FINIQ_ACCEPTOR|52=20230614-06:57:48.043|56=FINIQ_INITIATOR|1=Singapore|15=INR|38=20000|54=1|55=USD/INR|60=20230614-06:57:48.043|107=SPOT|117=Quebec_3|131=10003|132=82.585|6001=3|10=155|
20230614-06:57:48.263: 8=FIX.4.4|9=194|35=S|34=25|49=FINIQ_ACCEPTOR|52=20230614-06:57:48.152|56=FINIQ_INITIATOR|1=Singapore|15=INR|38=20000|54=1|55=USD/INR|60=20230614-06:57:48.152|107=SPOT|117=Quebec_4|131=10003|132=82.58497|6001=4|10=017|
20230614-06:57:48.373: 8=FIX.4.4|9=194|35=S|34=26|49=FINIQ_ACCEPTOR|52=20230614-06:57:48.262|56=FINIQ_INITIATOR|1=Singapore|15=INR|38=20000|54=1|55=USD/INR|60=20230614-06:57:48.262|107=SPOT|117=Quebec_5|131=10003|132=82.58499|6001=5|10=026|
20230614-06:57:48.482: 8=FIX.4.4|9=194|35=S|34=27|49=FINIQ_ACCEPTOR|52=20230614-06:57:48.371|56=FINIQ_INITIATOR|1=Singapore|15=INR|38=20000|54=1|55=USD/INR|60=20230614-06:57:48.371|107=SPOT|117=Quebec_6|131=10003|132=82.58501|6001=6|10=015|
20230614-06:57:48.592: 8=FIX.4.4|9=192|35=S|34=28|49=FINIQ_ACCEPTOR|52=20230614-06:57:48.481|56=FINIQ_INITIATOR|1=Singapore|15=INR|38=20000|54=1|55=USD/INR|60=20230614-06:57:48.481|107=SPOT|117=Quebec_7|131=10003|132=82.585|6001=7|10=179|
20230614-06:57:48.701: 8=FIX.4.4|9=194|35=S|34=29|49=FINIQ_ACCEPTOR|52=20230614-06:57:48.590|56=FINIQ_INITIATOR|1=Singapore|15=INR|38=20000|54=1|55=USD/INR|60=20230614-06:57:48.590|107=SPOT|117=Quebec_8|131=10003|132=82.58502|6001=8|10=028|
20230614-06:57:48.810: 8=FIX.4.4|9=192|35=S|34=30|49=FINIQ_ACCEPTOR|52=20230614-06:57:48.699|56=FINIQ_INITIATOR|1=Singapore|15=INR|38=20000|54=1|55=USD/INR|60=20230614-06:57:48.699|107=SPOT|117=Quebec_9|131=10003|132=82.585|6001=9|10=198|
20230614-06:57:48.920: 8=FIX.4.4|9=194|35=S|34=31|49=FINIQ_ACCEPTOR|52=20230614-06:57:48.809|56=FINIQ_INITIATOR|1=Singapore|15=INR|38=20000|54=1|55=USD/INR|60=20230614-06:57:48.809|107=SPOT|117=Quebec_10|131=10003|132=82.585|6001=10|10=011|
20230614-06:58:54.286: 8=FIX.4.4|9=72|35=5|34=5|49=FINIQ_INITIATOR|52=20230614-06:58:54.286|56=FINIQ_ACCEPTOR|10=156|
20230614-06:58:54.505: 8=FIX.4.4|9=73|35=5|34=32|49=FINIQ_ACCEPTOR|52=20230614-06:58:54.388|56=FINIQ_INITIATOR|10=208|
20230614-06:59:23.485: 8=FIX.4.4|9=92|35=A|34=1|49=FINIQ_INITIATOR|52=20230614-06:59:23.375|56=FINIQ_ACCEPTOR|98=0|108=7200|141=Y|10=078|
20230614-06:59:23.625: 8=FIX.4.4|9=92|35=A|34=1|49=FINIQ_ACCEPTOR|52=20230614-06:59:23.545|56=FINIQ_INITIATOR|98=0|108=7200|141=Y|10=077|
20230614-06:59:23.672: 8=FIX.4.4|9=173|35=R|34=2|49=FINIQ_INITIATOR|52=20230614-06:59:23.672|56=FINIQ_ACCEPTOR|1=Singapore|60=20230614-12:29:23.641|131=10001|6001=1|146=1|55=USD/INR|107=SPOT|54=1|38=20000|15=INR|10=155|
20230614-06:59:23.766: 8=FIX.4.4|9=192|35=S|34=2|49=FINIQ_ACCEPTOR|52=20230614-06:59:23.732|56=FINIQ_INITIATOR|1=Singapore|15=INR|38=20000|54=1|55=USD/INR|60=20230614-06:59:23.732|107=SPOT|117=Osaka_1|131=10001|132=82.58499|6001=1|10=108|
20230614-06:59:23.875: 8=FIX.4.4|9=192|35=S|34=3|49=FINIQ_ACCEPTOR|52=20230614-06:59:23.842|56=FINIQ_INITIATOR|1=Singapore|15=INR|38=20000|54=1|55=USD/INR|60=20230614-06:59:23.842|107=SPOT|117=Osaka_2|131=10001|132=82.58498|6001=2|10=114|
20230614-06:59:23.985: 8=FIX.4.4|9=190|35=S|34=4|49=FINIQ_ACCEPTOR|52=20230614-06:59:23.951|56=FINIQ_INITIATOR|1=Singapore|15=INR|38=20000|54=1|55=USD/INR|60=20230614-06:59:23.951|107=SPOT|117=Osaka_3|131=10001|132=82.585|6001=3|10=005|
20230614-06:59:24.094: 8=FIX.4.4|9=192|35=S|34=5|49=FINIQ_ACCEPTOR|52=20230614-06:59:24.061|56=FINIQ_INITIATOR|1=Singapore|15=INR|38=20000|54=1|55=USD/INR|60=20230614-06:59:24.061|107=SPOT|117=Osaka_4|131=10001|132=82.58499|6001=4|10=109|
20230614-06:59:24.203: 8=FIX.4.4|9=192|35=S|34=6|49=FINIQ_ACCEPTOR|52=20230614-06:59:24.170|56=FINIQ_INITIATOR|1=Singapore|15=INR|38=20000|54=1|55=USD/INR|60=20230614-06:59:24.170|107=SPOT|117=Osaka_5|131=10001|132=82.58502|6001=5|10=099|
20230614-06:59:24.313: 8=FIX.4.4|9=192|35=S|34=7|49=FINIQ_ACCEPTOR|52=20230614-06:59:24.279|56=FINIQ_INITIATOR|1=Singapore|15=INR|38=20000|54=1|55=USD/INR|60=20230614-06:59:24.279|107=SPOT|117=Osaka_6|131=10001|132=82.58502|6001=6|10=122|
20230614-06:59:24.422: 8=FIX.4.4|9=192|35=S|34=8|49=FINIQ_ACCEPTOR|52=20230614-06:59:24.389|56=FINIQ_INITIATOR|1=Singapore|15=INR|38=20000|54=1|55=USD/INR|60=20230614-06:59:24.389|107=SPOT|117=Osaka_7|131=10001|132=82.58501|6001=7|10=128|
20230614-06:59:24.531: 8=FIX.4.4|9=192|35=S|34=9|49=FINIQ_ACCEPTOR|52=20230614-06:59:24.498|56=FINIQ_INITIATOR|1=Singapore|15=INR|38=20000|54=1|55=USD/INR|60=20230614-06:59:24.498|107=SPOT|117=Osaka_8|131=10001|132=82.58502|6001=8|10=134|
20230614-06:59:24.641: 8=FIX.4.4|9=193|35=S|34=10|49=FINIQ_ACCEPTOR|52=20230614-06:59:24.608|56=FINIQ_INITIATOR|1=Singapore|15=INR|38=20000|54=1|55=USD/INR|60=20230614-06:59:24.608|107=SPOT|117=Osaka_9|131=10001|132=82.58501|6001=9|10=162|
20230614-06:59:24.672: 8=FIX.4.4|9=173|35=R|34=3|49=FINIQ_INITIATOR|52=20230614-06:59:24.672|56=FINIQ_ACCEPTOR|1=Singapore|60=20230614-12:29:24.672|131=10002|6001=2|146=1|55=USD/INR|107=SPOT|54=1|38=20000|15=INR|10=164|
20230614-06:59:24.750: 8=FIX.4.4|9=193|35=S|34=11|49=FINIQ_ACCEPTOR|52=20230614-06:59:24.701|56=FINIQ_INITIATOR|1=Singapore|15=INR|38=20000|54=1|55=USD/INR|60=20230614-06:59:24.701|107=SPOT|117=Osaka_1|131=10002|132=82.58502|6001=1|10=137|
20230614-06:59:24.750: 8=FIX.4.4|9=195|35=S|34=12|49=FINIQ_ACCEPTOR|52=20230614-06:59:24.717|56=FINIQ_INITIATOR|1=Singapore|15=INR|38=20000|54=1|55=USD/INR|60=20230614-06:59:24.717|107=SPOT|117=Osaka_10|131=10001|132=82.58501|6001=10|10=248|
20230614-06:59:24.844: 8=FIX.4.4|9=193|35=S|34=13|49=FINIQ_ACCEPTOR|52=20230614-06:59:24.811|56=FINIQ_INITIATOR|1=Singapore|15=INR|38=20000|54=1|55=USD/INR|60=20230614-06:59:24.811|107=SPOT|117=Osaka_2|131=10002|132=82.58498|6001=2|10=159|
20230614-06:59:24.953: 8=FIX.4.4|9=193|35=S|34=14|49=FINIQ_ACCEPTOR|52=20230614-06:59:24.920|56=FINIQ_INITIATOR|1=Singapore|15=INR|38=20000|54=1|55=USD/INR|60=20230614-06:59:24.920|107=SPOT|117=Osaka_3|131=10002|132=82.58497|6001=3|10=163|
20230614-06:59:25.063: 8=FIX.4.4|9=193|35=S|34=15|49=FINIQ_ACCEPTOR|52=20230614-06:59:25.029|56=FINIQ_INITIATOR|1=Singapore|15=INR|38=20000|54=1|55=USD/INR|60=20230614-06:59:25.029|107=SPOT|117=Osaka_4|131=10002|132=82.58499|6001=4|10=170|
20230614-06:59:25.172: 8=FIX.4.4|9=191|35=S|34=16|49=FINIQ_ACCEPTOR|52=20230614-06:59:25.139|56=FINIQ_INITIATOR|1=Singapore|15=INR|38=20000|54=1|55=USD/INR|60=20230614-06:59:25.139|107=SPOT|117=Osaka_5|131=10002|132=82.585|6001=5|10=062|
20230614-06:59:25.281: 8=FIX.4.4|9=193|35=S|34=17|49=FINIQ_ACCEPTOR|52=20230614-06:59:25.248|56=FINIQ_INITIATOR|1=Singapore|15=INR|38=20000|54=1|55=USD/INR|60=20230614-06:59:25.248|107=SPOT|117=Osaka_6|131=10002|132=82.58504|6001=6|10=169|
20230614-06:59:25.391: 8=FIX.4.4|9=191|35=S|34=18|49=FINIQ_ACCEPTOR|52=20230614-06:59:25.358|56=FINIQ_INITIATOR|1=Singapore|15=INR|38=20000|54=1|55=USD/INR|60=20230614-06:59:25.358|107=SPOT|117=Osaka_7|131=10002|132=82.585|6001=7|10=074|
20230614-06:59:25.500: 8=FIX.4.4|9=193|35=S|34=19|49=FINIQ_ACCEPTOR|52=20230614-06:59:25.467|56=FINIQ_INITIATOR|1=Singapore|15=INR|38=20000|54=1|55=USD/INR|60=20230614-06:59:25.467|107=SPOT|117=Osaka_8|131=10002|132=82.58501|6001=8|10=178|
20230614-06:59:25.610: 8=FIX.4.4|9=193|35=S|34=20|49=FINIQ_ACCEPTOR|52=20230614-06:59:25.576|56=FINIQ_INITIATOR|1=Singapore|15=INR|38=20000|54=1|55=USD/INR|60=20230614-06:59:25.576|107=SPOT|117=Osaka_9|131=10002|132=82.58499|6001=9|10=190|
20230614-06:59:25.688: 8=FIX.4.4|9=173|35=R|34=4|49=FINIQ_INITIATOR|52=20230614-06:59:25.688|56=FINIQ_ACCEPTOR|1=Singapore|60=20230614-12:29:25.688|131=10003|6001=3|146=1|55=USD/INR|107=SPOT|54=1|38=20000|15=INR|10=183|
20230614-06:59:25.719: 8=FIX.4.4|9=195|35=S|34=21|49=FINIQ_ACCEPTOR|52=20230614-06:59:25.686|56=FINIQ_INITIATOR|1=Singapore|15=INR|38=20000|54=1|55=USD/INR|60=20230614-06:59:25.686|107=SPOT|117=Osaka_10|131=10002|132=82.58502|6001=10|10=006|
20230614-06:59:25.766: 8=FIX.4.4|9=193|35=S|34=22|49=FINIQ_ACCEPTOR|52=20230614-06:59:25.717|56=FINIQ_INITIATOR|1=Singapore|15=INR|38=20000|54=1|55=USD/INR|60=20230614-06:59:25.717|107=SPOT|117=Osaka_1|131=10003|132=82.58501|6001=1|10=155|
20230614-06:59:25.860: 8=FIX.4.4|9=193|35=S|34=23|49=FINIQ_ACCEPTOR|52=20230614-06:59:25.826|56=FINIQ_INITIATOR|1=Singapore|15=INR|38=20000|54=1|55=USD/INR|60=20230614-06:59:25.826|107=SPOT|117=Osaka_2|131=10003|132=82.58501|6001=2|10=160|
20230614-06:59:25.969: 8=FIX.4.4|9=191|35=S|34=24|49=FINIQ_ACCEPTOR|52=20230614-06:59:25.936|56=FINIQ_INITIATOR|1=Singapore|15=INR|38=20000|54=1|55=USD/INR|60=20230614-06:59:25.936|107=SPOT|117=Osaka_3|131=10003|132=82.585|6001=3|10=068|
20230614-06:59:26.078: 8=FIX.4.4|9=193|35=S|34=25|49=FINIQ_ACCEPTOR|52=20230614-06:59:26.045|56=FINIQ_INITIATOR|1=Singapore|15=INR|38=20000|54=1|55=USD/INR|60=20230614-06:59:26.045|107=SPOT|117=Osaka_4|131=10003|132=82.58499|6001=4|10=170|
20230614-06:59:26.188: 8=FIX.4.4|9=191|35=S|34=26|49=FINIQ_ACCEPTOR|52=20230614-06:59:26.154|56=FINIQ_INITIATOR|1=Singapore|15=INR|38=20000|54=1|55=USD/INR|60=20230614-06:59:26.154|107=SPOT|117=Osaka_5|131=10003|132=82.585|6001=5|10=060|
20230614-06:59:26.297: 8=FIX.4.4|9=193|35=S|34=27|49=FINIQ_ACCEPTOR|52=20230614-06:59:26.264|56=FINIQ_INITIATOR|1=Singapore|15=INR|38=20000|54=1|55=USD/INR|60=20230614-06:59:26.264|107=SPOT|117=Osaka_6|131=10003|132=82.58501|6001=6|10=166|
20230614-06:59:26.406: 8=FIX.4.4|9=193|35=S|34=28|49=FINIQ_ACCEPTOR|52=20230614-06:59:26.373|56=FINIQ_INITIATOR|1=Singapore|15=INR|38=20000|54=1|55=USD/INR|60=20230614-06:59:26.373|107=SPOT|117=Osaka_7|131=10003|132=82.58496|6001=7|10=184|
20230614-06:59:26.516: 8=FIX.4.4|9=193|35=S|34=29|49=FINIQ_ACCEPTOR|52=20230614-06:59:26.483|56=FINIQ_INITIATOR|1=Singapore|15=INR|38=20000|54=1|55=USD/INR|60=20230614-06:59:26.483|107=SPOT|117=Osaka_8|131=10003|132=82.58503|6001=8|10=180|
20230614-06:59:26.625: 8=FIX.4.4|9=191|35=S|34=30|49=FINIQ_ACCEPTOR|52=20230614-06:59:26.592|56=FINIQ_INITIATOR|1=Singapore|15=INR|38=20000|54=1|55=USD/INR|60=20230614-06:59:26.592|107=SPOT|117=Osaka_9|131=10003|132=82.585|6001=9|10=075|
20230614-06:59:26.735: 8=FIX.4.4|9=193|35=S|34=31|49=FINIQ_ACCEPTOR|52=20230614-06:59:26.701|56=FINIQ_INITIATOR|1=Singapore|15=INR|38=20000|54=1|55=USD/INR|60=20230614-06:59:26.701|107=SPOT|117=Osaka_10|131=10003|132=82.585|6001=10|10=142|
20230614-07:00:03.366: 8=FIX.4.4|9=72|35=5|34=5|49=FINIQ_INITIATOR|52=20230614-07:00:03.366|56=FINIQ_ACCEPTOR|10=137|
20230614-07:00:03.444: 8=FIX.4.4|9=73|35=5|34=32|49=FINIQ_ACCEPTOR|52=20230614-07:00:03.393|56=FINIQ_INITIATOR|10=186|
